:100000000C9458030C9475030C940B110C94750309
:100010000C9475030C9475030C9475030C94E61002
:100020000C9475030C9475030C9475030C94750370
:100030000C9475030C9475030C9431120C94750395
:100040000C9475030C9475030C9475030C94750350
:100050000C9475030C9475030C9475030C94750340
:100060000C9475030C94750300010800060400014C
:10007000450000820000400020485454502F312E8B
:10008000302034303120556E617574686F72697A32
:1000900065640D0A436F6E74656E742D54797065D6
:1000A0003A20746578742F68746D6C0D0A0D0A3CE3
:1000B00068313E343031205A756772696666207641
:1000C0006572776569676572743C2F68313E003CE4
:1000D00068313E486F6D6543757272656E7420328B
:1000E0003030204F4B3C2F68313E00485454502F45
:1000F000312E3020323030204F4B0D0A436F6E745A
:10010000656E742D547970653A20746578742F6823
:10011000746D6C0D0A0D0A3C68313E323030204F50
:100120004B3C2F68313E007777772E727565646996
:100130006865696D6C69636865722E6368002F631A
:1001400067692D62696E2F7374726F6D2E706C3FCC
:100150000020576174743C2F703E003C703E4C652B
:10016000697374756E673A20003C68723E3C68346F
:100170003E3C666F6E7420636F6C6F723D2223305D
:100180003046463030223E5374617475733C2F689C
:10019000343E3C2F666F6E743E3C2F703E003C70C8
:1001A0003E2020486F6D6543757272656E743C62C7
:1001B000723E202046616C6B656E7374726173735E
:1001C000652032303C62723E202038363330205277
:1001D00075657469003C68313E486F6D65437572A2
:1001E00072656E743C2F68313E003C612068726518
:1001F000663D222F223E266C743B266C743B7A753A
:10020000722675756D6C3B636B207A752053746133
:100210007475733C2F613E3C2F703E0A003C703E6B
:100220000A3C696E70757420747970653D737562EF
:100230006D69742076616C75653D224F4B223E3CA2
:100240002F666F726D3E0A003C703E0A3C696E700C
:10025000757420747970653D726164696F206E6198
:100260006D653D7374617475732076616C75653D61
:10027000313E204F4E203C62723E3C2F703E0A00C1
:100280003C703E0A3C696E70757420747970653DEF
:10029000726164696F206E616D653D737461747520
:1002A000732076616C75653D3020636865636B65AE
:1002B000643E204F46463C62723E3C2F703E0A0030
:1002C0003C703E0A3C696E70757420747970653DAF
:1002D000726164696F206E616D653D7374617475E0
:1002E000732076616C75653D3120636865636B656D
:1002F000643E204F4E203C62723E3C2F703E0A000E
:100300003C703E0A3C696E70757420747970653D6E
:10031000726164696F206E616D653D73746174759F
:10032000732076616C75653D303E204F46463C62D9
:10033000723E3C2F703E0A003C703E0A3C696E7073
:10034000757420747970653D68696464656E206EAB
:10035000616D653D70772076616C75653D226964DD
:100360006575723030223E3C2F703E003C666F72E5
:100370006D20616374696F6E3D2F747769206D65C0
:1003800074686F643D6765743E003C696E70757497
:1003900020747970653D7375626D69742076616C47
:1003A00075653D225365747A656E223E3C2F666FFB
:1003B000726D3E005374756E64653A203C696E70D0
:1003C000757420747970653D74657874206E616D04
:1003D000653D636F6465202073697A653D323E3CFC
:1003E00062723E003C696E70757420747970653D70
:1003F0007375626D69742076616C75653D224C651C
:1004000073656E223E3C2F703E005374756E6465BA
:100410003A203C696E70757420747970653D74651E
:100420007874206E616D653D7374756E646520200F
:1004300073697A653D323E3C62723E004F626A6586
:100440006B743A203C696E70757420747970653DE8
:1004500074657874206E616D653D6F626A656B745A
:10046000202073697A653D323E3C62723E00576FD0
:100470006368656E7461673A203C696E70757420BC
:10048000747970653D74657874206E616D653D7733
:100490006F6368656E746167202073697A653D32A9
:1004A0003E3C62723E003C703E5261756D3A203CAB
:1004B000696E70757420747970653D746578742008
:1004C0006E616D653D7261756D2073697A653D324F
:1004D0003E3C62723E003C666F726D2061637469DF
:1004E0006F6E3D2F636465206D6574686F643D6752
:1004F00065743E003C68323E4265617262656974B3
:10050000656E3C2F68323E3C703E50617373776F6E
:100510007274204F4B2E3C2F703E0A0048545450AA
:100520002F312E3020323030204F4B0D0A436F6E6A
:1005300074656E742D547970653A20746578742FE3
:1005400068746D6C0D0A507261676D613A206E6F50
:100550002D63616368650D0A0D0A003C703E6F6B88
:10056000636F64653D00485454502F312E30203263
:100570003030204F4B0D0A436F6E74656E742D54EE
:100580007970653A20746578742F68746D6C0D0A03
:10059000507261676D613A206E6F2D6361636865AB
:1005A0000D0A0D0A00485454502F312E302032309D
:1005B00030204F4B0D0A436F6E74656E742D547965
:1005C00070653A20746578742F68746D6C0D0A50EC
:1005D0007261676D613A206E6F2D63616368650DAE
:1005E0000A0D0A000D0A436F6E74656E742D5479FE
:1005F00070653A206170706C69636174696F6E2F09
:10060000782D7777772D666F726D2D75726C656EAC
:10061000636F6465640D0A0D0A00436F6E74656E46
:10062000742D4C656E6774683A20000D0A55736529
:10063000722D4167656E743A207467722F312E30C7
:100640000D0A4163636570743A202A2F2A0D0A004F
:100650000D0A0020485454502F312E300D0A486F97
:1006600073743A2000504F535420000D0A5573659F
:10067000722D4167656E743A207467722F312E3087
:100680000D0A4163636570743A20746578742F684D
:10069000746D6C0D0A0D0A0020485454502F312EF1
:1006A000300D0A486F73743A20004745542000000B
:1006B00011241FBECFEFD8E0DEBFCDBF13E0A0E016
:1006C000B1E0EAEAF5E402C005900D92A236B10766
:1006D000D9F717E0A2E6B3E001C01D92AA3BB1072B
:1006E000E1F70E94F4150C94D3220C940000809141
:1006F000F506882319F481E08093F50608952A9879
:10070000962F9F71982B9EBD0DB407FEFDCF1EBC8A
:100710000DB407FEFDCF67FF04C01EBC0DB407FE7D
:10072000FDCF2A9A8EB508952A986F71682B6EBDF9
:100730000DB407FEFDCF4EBD0DB407FEFDCF2A9AC6
:1007400008952A982AE32EBD0DB407FEFDCFFB01C4
:100750009C0108C0215030401EBC0DB407FEFDCFE7
:100760004EB5419321153105A9F7860F971FFC015E
:1007700010822A9A0895FB012A982AE72EBD0DB40B
:1007800007FEFDCF06C0019721912EBD0DB407FED7
:10079000FDCF0097C1F72A9A08951F93CF93DF9357
:1007A000182FC82FD0E0C076D07020915A0730E0C3
:1007B000C217D30791F080EA6FE143E00E949403EF
:1007C000AE0185E0559547958A95E1F780E86FE1A0
:1007D0000E949403107610935A07DF91CF911F91D6
:1007E0000895DF93CF930F92CDB7DEB7682F69835B
:1007F0000E94CD0380E069810E947F030F90CF911A
:10080000DF9108951F93DF93CF930F92CDB7DEB79B
:10081000182F69830E94CD0380E4612F49810E94D3
:1008200094030F90CF91DF911F910895682F84ED6D
:100830000E94020482ED61E00E94020488E28A952F
:10084000F1F78AEE0E94F10380FDFBCF82ED60E0BC
:100850000E94020489ED0E94F10390E008951F9325
:10086000DF93CF930F92CDB7DEB7982F162F84ED7D
:10087000692F79830E94020486ED612F0E94020491
:1008800087ED7981672F0E94020418E203C0812F4F
:100890008A95F1F78AEE0E94F10380FDF8CF0F9060
:1008A000CF91DF911F910895682F677085E70E94AF
:1008B00002040895CF93DF93EC01229A2A9A84B11F
:1008C000886284B9249A2B9A2D9A80E58CBD8DB5C7
:1008D00081608DBD8FEF60E04FEF0E94940380E058
:1008E00090E00197F1F7109259071092580788E0AD
:1008F00060E00E94020489E060E00E9402048CE053
:1009000060E00E9402048DE060E00E9402048AE040
:100910006EEF0E9402048BE069E10E94020484E011
:100920006FEF0E94020485E069E10E94020486E004
:100930006FEF0E94020487E06FE10E94020488E3E7
:1009400060EB0E94020488E26FE30E94020489E2E5
:1009500060E30E94020480E369EF0E94020481E3E5
:1009600067EF0E94020480EC6DE00E94020481ECBB
:1009700060E00E94020480E862EC42E30E9494037B
:1009800086EC62E10E94020487EC6CE00E940204A3
:1009900084EC62E10E9402048AEC6CED0E94020485
:1009A0008BEC65E00E94020484EE68810E940204E0
:1009B00085EE69810E94020482EE6A810E9402042F
:1009C00083EE6B810E94020480EE6C810E9402041F
:1009D00081EE6D810E94020480E160E071E00E947E
:1009E0002F048FE10E94CD0380E86BE140EC0E9470
:1009F000940380E86FE144E00E949403DF91CF917B
:100A0000089582E70E94F103089581E10E9416048F
:100A100021E0009709F420E0822F08950F931F939F
:100A2000CF93DF93EC018B010FC08CE10E94F103A7
:100A300081FF0AC080E86FE140E80E94940380EAE9
:100A40006FE140E80E94940380E06FE10E947F0321
:100A500083FDEBCF82E06FEF0E94020483E069E147
:100A60000E9402046C2F615086E00E9402049E01E5
:100A70002150364E87E0632F0E9402048AE760E02F
:100A800040E00E949403CE01B8010E94BB0380E8BD
:100A90006FE148E00E949403DF91CF911F910F9185
:100AA000089589E30E94F10391E0882309F490E01E
:100AB000892F08959F92AF92BF92CF92DF92EF92CB
:100AC000FF920F931F93CF93DF936C015B0189E338
:100AD0000E94F103882309F47CC0C0915807D0918B
:100AE000590780E06C2F0E9402046D2F772767FD65
:100AF0007A9581E00E9402048AE360E00E947F030D
:100B0000082F8AE360E00E947F03382F20E010E086
:100B1000022B132B10935907009358078AE360E0C8
:100B20000E947F03C82F8AE360E00E947F03982E13
:100B30008AE360E00E947F03E82EFF248AE360E0FE
:100B40000E947F03382F20E0E22AF32AE7FE12C03A
:100B5000D0E0392D20E0C22BD32B0894C108D10856
:100B60002497CC16DD0608F4E601CE01B5010E94FB
:100B7000A10302C0C0E0D0E08CE0602F0E9402041C
:100B8000612F772767FD7A958DE00E940204780136
:100B90000894E108F1088FEFE81689E1F80638F0CB
:100BA0008CE06EEF0E9402048DE069E10AC0602FC4
:100BB00061508CE00E9402046F2D772767FD7A95C3
:100BC0008DE00E94020480E86EE140E40E949403FC
:100BD00002C0C0E0D0E0CE01DF91CF911F910F9114
:100BE000FF90EF90DF90CF90BF90AF909F900895CF
:100BF000CF92DF92EF92FF920F931F93CF93DF93E9
:100C00006C01413041F4CB010897A0E0B0E041967F
:100C1000A11DB11D0DC0423041F4CB010897A0E0E9
:100C2000B0E00696A11DB11D03C080E090E0DC019C
:100C3000EB01F60116C0E080FF2400E010E0102F69
:100C40000F2DFE2CEE24218130E040E050E0E22A1E
:100C5000F32A042B152B8E0D9F1DA01FB11F32965A
:100C60002297C230D10538F7FB01EE7FEC0DFD1D58
:100C700060FF0FC0208130E040E050E0542F432F50
:100C8000322F222702C0A070B070820F931FA41FC2
:100C9000B51F9D01442755272115310541055105F3
:100CA00091F79C0120953095C901DF91CF911F915B
:100CB0000F91FF90EF90DF90CF90089550932C0705
:100CC00040935102262F372FD901EBE3F7E02D9106
:100CD000219327E0EF33F207D1F7DC01E5E3F7E0FA
:100CE0008D91819387E0EB33F807D1F70895DC010C
:100CF0005A96862F972FFC0180E02D91919129170C
:100D000029F48F5F8430C9F781E0089580E0089569
:100D1000FC016932710598F08485883081F48585FD
:100D2000863069F4B696ABE3B7E091918D91981750
:100D300041F487E0AF33B807C1F781E0089580E060
:100D4000089580E00895FC016A327105B0F0848551
:100D5000883099F48585882381F48685853469F403
:100D60007E96ABE3B7E091918D91981741F487E0BF
:100D7000AF33B807C1F781E0089580E0089580E0BF
:100D80000895E82FF92FA5E3B7E0868181938D912F
:100D9000858387E0AB33B807C1F70895CF93DF931E
:100DA000EC01188E198E80E48C8B1D8A8E8BCE01FF
:100DB0000E9664E170E040E00E94F805988F898FFC
:100DC000DF91CF910895ABE3B7E0FC017A962081E3
:100DD00024832D91219327E0AF33B207C1F70E94FE
:100DE000CE060895FC01BA9684E09291690F711DB8
:100DF00094816483442311F0908301C01082815058
:100E000019F0672F7727F1CF0895CF93DF93EC0187
:100E10008CA19AA19CA38AA38DA19BA19DA38BA326
:100E2000CE010E94F2061AAA1BAA80E58EA7DF91C6
:100E3000CF910895CF93DF93EC010E94C1061C8AE5
:100E400082E08D8BA5E3B7E0FE01769680818287F4
:100E50008D91819387E0AB33B807C1F7ABE3B7E07F
:100E6000FE017C96808182878D91819387E0AF33EC
:100E7000B807C1F78AE290E0BE010E940E05DF913B
:100E8000CF9108950F931F93CF93DF93EC018B01C4
:100E90000E94C106CE010E94E3061AA28CA1883FDF
:100EA00018F08DA18F5F8DA38CA1885F8CA3C801E2
:100EB000BE010E940E05DF91CF911F910F91089501
:100EC000DF92EF92FF920F931F93CF93DF93EC018A
:100ED000162FF72E042FE22ED32E0E94C1060D3DB1
:100EE00008F00CED188A802F845E898BCE010E9459
:100EF000E3068AA18CA38BA18DA3DAA2EBA21EA28A
:100F0000802F885F8FA318A619A6812F9F2DDC0143
:100F1000FE01BA9680E003C09D9191938F5F801788
:100F2000D8F310E0B801605F7F4FCE014A9641E0F0
:100F30000E94F80598A789A7C8018A96BE010E9459
:100F40000E05DF91CF911F910F91FF90EF90DF90F1
:100F50000895CF93DF93EC010E94C106188A8CE2BA
:100F6000898BCE010E94E30682E18FA7CE0161E06A
:100F700070E040E00E9405071EA21FA2809152026D
:100F800088A719A68D5F8093520282E08EAB84E021
:100F90008FAB85E088AF19AE90E69EA788AB88E757
:100FA00089ABCE014A9660E270E042E00E94F8050B
:100FB0009AAB8BAB8AE390E0BE010E940E05DF91F5
:100FC000CF910895FC01218930E0908980E0282BA1
:100FD000392B86A582958F7090E0880F991F880F16
:100FE000991F281B390B2451304037FF02C020E0E5
:100FF00030E0C9010895DB01D696A80FB91F03C0E0
:10100000ED936F5F7F4FFA014F5F5F4FE491EE23E7
:10101000B9F7CB010895FB01F696E80FF91FA42F4D
:10102000B52F03C081936F5F7F4F109719F08D919B
:101030008823C1F7CB010895EF92FF920F931F937E
:10104000CF93DF938C017B01842FCFE3D7E090E037
:10105000BE014AE050E00E946522C801B701AE011E
:101060000E940B08DF91CF911F910F91FF90EF909D
:101070000895EF92FF920F931F93CF93DF938C010C
:101080007B01CFE3D7E0842F992787FD9095BE01A0
:101090004AE050E00E946522C801B701AE010E94FB
:1010A0000B08DF91CF911F910F91FF90EF90089562
:1010B000EF92FF920F931F93DF93CF930F92CDB7D1
:1010C000DEB77C018B0149830E94C10649814061E2
:1010D000F70147A70115110521F4C70161E070E090
:1010E00002C0C701B80141E00E940507F701108A5C
:1010F00088E2818BC7010E94E30684E0F70180ABA0
:1011000011AAC7014A966CE170E042E00E94F8051E
:10111000F70192AB83AB86E390E0B7010E940E0526
:101120000F90CF91DF911F910F91FF90EF90089555
:101130000F931F93CF93DF93EC018B01CB01889624
:10114000988B898BCE010E94CE061AAA1BAAB801E1
:10115000645E7F4FCE014A9642E00E94F8059AAB4A
:101160008BABC801C696BE010E940E05DF91CF91E0
:101170001F910F9108950F931F93CF93DF93EC016D
:101180008B0160912D0770912E0740E00E94580856
:1011900089E18FA7CE01B8010E949808DF91CF9115
:1011A0001F910F910895DC0107C0FA0184918D937E
:1011B0004F5F5F4F6150704061157105B1F7089541
:1011C000EF92FF920F931F93CF93DF93EC017B017C
:1011D000DC0105E317E0F8018FEF8D9391911596EF
:1011E0009C93159727E0EB33F207B9F788E08C87DB
:1011F00086E08D87CE010E9668E070E048E650E00C
:101200000E94D308FE017696D8018D918D018193BD
:101210001186B7E00B331B07B9F78E2D9F2DABE37B
:10122000B7E0AE01445E5F4FFC012191CF01FA01AE
:1012300022872D912193AF01F7E0AF33BF07A1F7CC
:101240008AE290E0BE010E940E05DF91CF911F91CE
:101250000F91FF90EF900895DC015C96E0E3F2E0DF
:101260003D912191321781F422E0E433F207C1F776
:10127000DC015696EFE2F7E08D91819387E0E5334C
:10128000F807D1F781E0089580E00895282F392FDD
:10129000D901EBE1F7E08D91819387E0EF31F80719
:1012A000D1F7089522E020934D02282F392FD9013C
:1012B000E0E3F2E08D91819382E0E433F807D1F727
:1012C0000895DF92EF92FF920F931F93CF93DF93D6
:1012D000EC01F62EE42ED22EAFE2B7E0AC0185E3AE
:1012E00097E02D91FA012193AF01FC012191CF01EB
:1012F000FA012583F7E0A533BF0799F788E08C87CB
:101300001D86CE010E9669E070E040E750E00E9435
:10131000D3088CE2898B86E08F8BABE1B7E08BE35F
:1013200097E08E01065E1F4FA8012D91FA012483DC
:10133000FC012191CF01FA012193AF01F7E0AF3118
:10134000BF0799F7CE010E94CE06ECA2DDA28BE08A
:101350008AA3FBA2FE01B69680E011928F5F8830CF
:10136000E1F78091520288A78D5F8093520280E658
:101370008EA792E09FA784E088AB19AA1AAA1BAA9D
:101380001CAA1DAA9EAB8FAB83E088AF19AEC80123
:1013900060E270E042E00E94F8059AAB8BAB8AE312
:1013A00090E0BE010E940E05DF91CF911F910F9139
:1013B000FF90EF90DF90089590932107809320078E
:1013C00070932307609322075093250740932407C7
:1013D00030932B0720932A0781E0809318071092FF
:1013E0001F0708950F931F93909321078093200761
:1013F000709325076093240750932707409326078F
:10140000309329072093280710932B0700932A076E
:1014100081E08093180780931F071F910F91089513
:1014200090931A07809319070895AF92BF92CF92B5
:10143000DF92EF92FF920F931F93DF93CF9300D031
:1014400000D00F92CDB7DEB77C018B01611571051D
:1014500079F580914D02823079F480914E0290911D
:101460004F02009749F40E940505882329F0C7011F
:1014700060E372E00E94E00880914E0290914F027A
:10148000019690934F0280934E028091180781300D
:1014900009F095C182E080931807609150026F5F58
:1014A00060935002C70140E020E50E94610987C1B6
:1014B0000E9488068823E1F0D70155968C915597B4
:1014C000813019F4C7010E941A0780914D028230C1
:1014D00009F075C1F7018589823009F070C1C70133
:1014E0000E942C09882309F46AC110924D0267C139
:1014F000C701B8010E94A306882309F460C1D7017F
:1015000057968C915797813099F492969C91929727
:10151000983071F4E0911907F0911A07309719F09B
:10152000C7014A960995C701B8010E94420747C101
:101530000633110518F4863009F041C1F70184A182
:101540008B3009F008C1C7016BE177E00E94770694
:10155000882309F434C1D7019F968C919F9782719B
:10156000823109F0A4C0C70160E070E040E00E9451
:10157000580888E1F70187A780911F07882361F544
:10158000C70160E070E04AEA56E00E94FB07BC0138
:101590004091200750912107C7010E94FB07BC0121
:1015A0004091220750912307C7010E940B08BC01FC
:1015B000C70148E956E00E94FB07BC01409124079F
:1015C00050912507C7010E94FB07BC01C7014BE6EC
:1015D00056E00E94FB0763C0C70160E070E045E68B
:1015E00056E00E94FB07BC01409120075091210763
:1015F000C7010E94FB07BC01C70143E556E00E94FA
:10160000FB07BC014091240750912507C7010E94A8
:10161000FB07BC0100912607109127070115110552
:1016200059F0C70140E556E00E94FB07BC01C70125
:10163000A8010E94FB07BC01C7014BE256E00E94D3
:10164000FB07BC01C7014AE156E00E94FB076C01A1
:10165000E0912807F0912907DF010D900020E9F7BC
:10166000CD0101978E1B9F0B8E010F5F1F4FB8019D
:101670004AE050E00E946522C701B601A8010E941D
:101680000B08BC01C70144EE55E00E94FB07BC01FA
:101690004091280750912907C7010E940B08BC01FF
:1016A00083E080931807C7010E94980888C0C7018B
:1016B0000E94E2078C0180911807833061F50D309C
:1016C000110548F184E080931807A0902A07B09094
:1016D0002B07A114B104F9F0F701C6A4C2947FE06E
:1016E000C722DD24CC0CDD1CCC0CDD1CB601655DF5
:1016F0007F4F6E0D7F1D80E091E043E050E00E943F
:101700003022B6016E5D7F4F009711F480E001C07A
:1017100081E0F5010995D7019F968C919F9782FFF3
:101720000AC0E0912A07F0912B07309721F082E060
:1017300060E070E00995F70187A580FF06C0B80159
:101740006F5F7F4FC70149E038C001151105C9F12E
:10175000C701B80131C090912C07891781F5D701D5
:1017600095969C91959780915102981741F59F9677
:10177000CC909F97C1FE04C0C7010E94A9071FC05B
:10178000C4FE1DC0C7010E94E20790932E078093FC
:101790002D07F70106A5009751F002950F7010E094
:1017A000000F111F000F111F0E5D1F4F0AC0C0FE5A
:1017B00006C0C70160E070E040E00E94580800E009
:1017C00010E0C8010F900F900F900F900F90CF91E5
:1017D000DF911F910F91FF90EF90DF90CF90BF901E
:1017E000AF900895FC01A22FB32F90E012C05C913E
:1017F000851741F411968C91882351F4319680819C
:101800008D3319F0A22FB32F03C0A22FB32F91E075
:1018100031968081882339F0803229F08A3019F09E
:10182000992329F302C09130C9F4A62FB72F50E0B5
:101830004150504001C09D938A2F861B919199235E
:1018400059F0903249F09A3039F0963229F0282F29
:1018500030E0241735077CF31C92089580E008954A
:10186000982F80538A3050F08153863020F0892F92
:101870008154863010F4865F089580E00895DF92E9
:10188000EF92FF920F931F93CF93DF93EC018C01A4
:101890001DC09B32B1F09532A9F47E010894E11C81
:1018A000F11CE7012196F70180810E94300CD82EAF
:1018B000F70181810E94300C9D2D9295907F982B8D
:1018C00001C090E2F80191938F01219698819923AC
:1018D00001F7F8011082DF91CF911F910F91FF90D6
:1018E000EF90DF900895CF92DF92EF92FF920F93E7
:1018F0001F93CF93DF93EC017B01DD240FC08C2D70
:101900008B3241F4B7016D0D711DC8010E9429226F
:10191000D3942196F801C1928F012196C880CC20E2
:1019200071F7DF91CF911F910F91FF90EF90DF90B2
:10193000CF900895FB01982F9F70292F205D218360
:10194000282F30E02F7030702A30310514F0995A6A
:10195000918382958F70982F905D90838A3010F0DC
:10196000895A808312820895CF92DF92FF920F935B
:101970001F93DF93CF930F92CDB7DEB78B016C012E
:10198000E5E2FE2E19C0203249F0822F90E0298333
:101990000E94EA212981009711F405C02BE2F80189
:1019A00021938F0109C0F801F1928F01822FBF01AD
:1019B0000E949A0C0E5F1F4FF60121916F012223A6
:1019C00011F7F80110820F90CF91DF911F910F91C5
:1019D000FF90DF90CF900895EF92FF920F931F93A7
:1019E000DF93CF930F92CDB7DEB77C018B01FC0163
:1019F000108211821282138240E080E090E01BC0CE
:101A0000009741F4252F30E0205330402A30310533
:101A100008F4C8015E3269F4F801108249830E941B
:101A2000CC214981F701E40FF11D80834F5F80E0F5
:101A300090E00F5F1F4FF8015081552311F04430A3
:101A4000F8F2F8011082433031F40E94CC21F70102
:101A5000838380E001C081E00F90CF91DF911F91DF
:101A60000F91FF90EF900895AF92BF92CF92DF92C7
:101A7000EF92FF920F931F93DF93CF930F92CDB707
:101A8000DEB75C01162FD42EE62EF72ECC2415C01F
:101A9000B5016C0D711DF70181917F0190E0402F20
:101AA00050E029830E9465222981F501EC0DF11D8A
:101AB0008081C3948823C9F720838E2D811B8D15C7
:101AC00038F3CA94F501EC0DF11D10820F90CF91FF
:101AD000DF911F910F91FF90EF90DF90CF90BF901B
:101AE000AF90089507C0E7EBFBE03197F1F700C036
:101AF000000001970097B9F70895459828E030E075
:101B000087FF02C0439A01C04398459A96EA9A9586
:101B1000F1F700C045982150304011F0880FF0CF08
:101B20000895449A81EE94E00197F1F700C0000017
:101B300044980895439A0E94910D80ED8A95F1F79B
:101B4000000008950E947D0D0E949A0D0895CF9384
:101B5000DF93EC0102C00E94A20D89918823D9F77E
:101B6000DF91CF910895DF93CF9300D00F92CDB73F
:101B7000DEB7282F1B828F708A3018F4805D8A832D
:101B800005C06AE00E94B81E9F5B9A83822F8295EF
:101B90008F708A3018F4805D898305C06AE00E94E6
:101BA000B81E9F5B9983CE0101960E94A70D0F90EE
:101BB0000F900F90CF91DF910895DF93CF9300D0D6
:101BC0000F92CDB7DEB764E60E94B81E892F1B8244
:101BD0002AE0622F0E94B81E905D9A830E94B81E70
:101BE000905D9983CE0101960E94A70D0F900F90F2
:101BF0000F90CF91DF9108950F931F93DF93CF93B1
:101C0000CDB7DEB728970FB6F894DEBF0FBECDBFB5
:101C10001886FE0138968E010F5F1F4F2AE030E0D4
:101C2000B9010E94D11E805D8293CB01E017F107BC
:101C3000B9F7CE0101960E94A70D28960FB6F89429
:101C4000DEBF0FBECDBFCF91DF911F910F910895E1
:101C5000DF93CF9300D000D0CDB7DEB71C822AE04F
:101C600030E0B9010E94D11E805D8B83CB01B901A8
:101C70000E94D11E805D8A83CB01B9010E94D11ED2
:101C8000805D8983CE0101960E94A70D0F900F9071
:101C90000F900F90CF91DF910895DF93CF9300D0F5
:101CA00000D0CDB7DEB71C822AE0622F0E94B81E9A
:101CB000905D9B830E94B81E905D9A830E94B81E1F
:101CC000905D9983CE0101960E94A70D0F900F9011
:101CD0000F900F90CF91DF910895CF93DF93C82F8E
:101CE000D92F02C00E94A20D89918823D9F7DF91D4
:101CF000CF910895FF920F931F93DF93CF93CDB7AA
:101D0000DEB72A970FB6F894DEBF0FBECDBFF62E12
:101D10008E010F5F1F4FB8014AE050E00E948E22F3
:101D2000F80101900020E9F73197E01BF10BFE1A52
:101D300000E004C080E20E94A20D0F5F0F15D4F3F3
:101D4000CE0101960E946D0E2A960FB6F894DEBF62
:101D50000FBECDBFCF91DF911F910F91FF900895DE
:101D600043980E94910D80ED8A95F1F70000089547
:101D70001F93DF93CF9300D0CDB7DEB7182F87EF37
:101D800094E2A1E081509040A040E1F700C0000043
:101D900080E34A8369830E947D0D0E94B00EA1E119
:101DA000BAE71197F1F700C0000080E30E947D0DB3
:101DB0000E94B00EB3E5BA95F1F7000080E30E94EF
:101DC0007D0D0E94B00EE3EFF1E03197F1F700C016
:101DD0000000812F0E947D0D0E94B00E88E00E94BD
:101DE0007D0D0E94B00E81E00E947D0D0E94B00E1C
:101DF00083ED90E30197F1F700C000006981862F21
:101E00000E947D0D0E94B00EA3EDB0E31197F1F793
:101E100000C000004A81842F0E947D0D0E94B00EF8
:101E20008FE996E8A1E081509040A040E1F700C022
:101E300000000F900F90CF91DF911F9108956130B6
:101E400049F0613028F0623039F0633081F40AC023
:101E5000805803C0805401C08C560E947D0D0E94A2
:101E6000B00E08958C520E947D0D0E94B00E089510
:101E70008823F9F483E160E00E941F0F80E20E9452
:101E8000A20D83E160E00E941F0F8BE20E94A20D71
:101E9000809165038D7F80936503809165038460E5
:101EA000809365037894809113078F5F8093130765
:101EB000089583E160E00E941F0F80E20E94A20D5E
:101EC00083E160E00E941F0F8DE20E94A20D089541
:101ED00081E00E947D0D0E94B00E82E090E00E94A1
:101EE000720D82E00E947D0D0E94B00E82E090E0B3
:101EF0000E94720D0895CF93DF93C82F80E06C2F5E
:101F00000E941F0FD4E180E20E94A20DD150D9F7A8
:101F100080E06C2F0E941F0F82E090E00E94720D03
:101F2000DF91CF910895CF92DF92EF92FF921F93AE
:101F3000CF93DF93EA011A862A961AE0FAE0CF2EB1
:101F4000D12CE12CF12CA70196010E94F81E605DB6
:101F50006A93B901CA011150B1F7DF91CF911F9176
:101F6000FF90EF90DF90CF900895CF92DF92EF92A5
:101F7000FF921F93CF93DF93FA01EA012B9613860A
:101F800097FF0AC02DE2208390958095709561950A
:101F90007F4F8F4F9F4F02C020E220831AE0AAE0BC
:101FA000CA2ED12CE12CF12CA70196010E941A1FF8
:101FB000605D6A93B901CA011150B1F7DF91CF9109
:101FC0001F91FF90EF90DF90CF900895DB01FB0110
:101FD000379617961C92179797FF06C02DE22C9301
:101FE000909581959F4F02C020E22C9346E02AE015
:101FF00030E0B9010E94E51E805D8293CB01415023
:10200000C1F70895DB01FB01349614961C921497D6
:1020100087FF04C09DE29C93819502C090E29C934F
:1020200023E03AE0632F0E94C41E905D92932150FA
:10203000C9F70895FB01138223E03AE0DF01A20F04
:10204000B11D632F0E94C41E905D9C932150F6CF5A
:10205000DF93CF9300D00F92CDB7DEB795E8909382
:102060007A0080937C0080917C00806C80937C005F
:1020700080917A00806480937A0080917A0086FD56
:10208000FCCF80917A00806480937A0080917A00FE
:1020900086FDFCCF70917800609179008091780086
:1020A0009091790020917A002F7720937A00880F01
:1020B000880F90E00F900F900F90CF91DF910895CF
:1020C00095E890937A0080937C0080917C008064F6
:1020D00080937C0080917A00806480937A00809164
:1020E0007A0086FDFCCF089580937C0044E020E0D8
:1020F00030E080917A00806480937A0080917A0049
:1021000086FDFCCF8091780090917900280F391FCF
:10211000415079F73695279536952795C901089549
:10212000EAE7F0E080818F778083089595E89093C7
:102130007A0080937C0080917C00806480937C0096
:1021400080917A00806480937A0080917A0086FD85
:10215000FCCF44E020E030E080917A0080648093FE
:102160007A0080917A0086FDFCCF80917800909172
:102170007900280F391F415079F780917A008F77C5
:1021800080937A003695279536952795C90108954D
:10219000E4E6F0E080818F7B8083E0E7F0E08081FF
:1021A00082608083E0EBF0E08081826080838081C8
:1021B00080648083E1EBF0E0808181608083B89A65
:1021C0001092B2008DE78093B30008951F920F9292
:1021D0000FB60F9211248F939F93AF93BF9380916B
:1021E000140790911507A0911607B0911707019653
:1021F000A11DB11D8093140790931507A093160796
:10220000B0931707BF91AF919F918F910F900FBE21
:102210000F901F9018951F920F920FB60F921124D6
:102220002F933F934F935F936F937F938F939F93DE
:10223000AF93BF93EF93FF938091650381FF05C038
:1022400084E091E00E94A70D3CC08091650382FF6D
:102250000DC010926603809165038B7F80936503A8
:102260008091B10081608093B1002BC080916203A6
:10227000909163030196909363038093620380912E
:102280006403806180936403419880911407909166
:102290001507A0911607B091170780938C039093B0
:1022A0008D03A0938E03B0938F03109214071092A6
:1022B0001507109216071092170785B191E089272C
:1022C00085B9FF91EF91BF91AF919F918F917F91D0
:1022D0006F915F914F913F912F910F900FBE0F9093
:1022E0001F90189588E080936900E99A80E060E08B
:1022F0000E941F0F89E091E00E94A70D7894089535
:102300008AB18D608AB95A9A5198599A399A419AE4
:1023100008958BB18BB90895982F27E030E080E0C5
:1023200041E050E097FF02C0589A01C05898E1EE92
:10233000F4E03197F1F700C000005A98E1EEF4E0C4
:102340003197F1F700C00000499B09C0BA01022E85
:1023500002C0660F771F0A94E2F7862B09C0BA0104
:10236000022E02C0660F771F0A94E2F7609586235B
:10237000F3E5FA95F1F700005A9A215030406FEFDB
:102380002F3F360711F0990FCDCF089580E00895C3
:10239000CF93DF93DB010D900020E9F71197A61B87
:1023A000262F372FE901FC0120E003C0399131933A
:1023B0002F5F2A17D8F3DC010D900020E9F7119761
:1023C000A81B8A0F911DFC011082DF91CF91089507
:1023D000EF92FF921F93CF93DF93EC0109900020BF
:1023E000E9F72197FB0101900020E9F79F012150B7
:1023F0003040122F161B262F372FD901C81BFC0186
:10240000EC0FF11D30E003C02D9121933F5F311798
:10241000D8F3DC010D900020E9F71197A81B8A0F73
:10242000911DFC011082DF91CF911F91FF90EF90E1
:102430000895569A84B5816084BD84B5826084BD58
:1024400084B5806884BD85B5846085BD85B58160AF
:1024500085BD8AE087BDEEE6F0E080818260808302
:1024600008951F920F920FB60F9211248F938091AF
:10247000830387BD8F910F900FBE0F901F9018950B
:1024800084ED93E060E070E045EA55E00E94FB07D0
:102490000895CF93C82F8823B1F480E060E00E94B4
:1024A0001F0F81E191E00E94A70D80E060E00E9493
:1024B0001F0F8BE191E00E94A70D809113078F5FA2
:1024C0008093130713C080E060E00E941F0F81E13A
:1024D00091E00E94A70D80E060E00E941F0F84E25F
:1024E00091E00E94A70D8C2F0E94B30DCF9108950B
:1024F000CF93C82F8823B1F480E060E00E941F0FC3
:1025000081E191E00E94A70D80E060E00E941F0F32
:102510008EE291E00E94A70D809113078F5F809358
:10252000130713C080E060E00E941F0F87E391E073
:102530000E94A70D80E060E00E941F0F82E491E0FE
:102540000E94A70D8C2F0E94B30DCF910895BC015E
:1025500083E492E047E050E00E9430229C0181E059
:102560002115310509F080E00895BC0189E392E06E
:1025700047E050E00E9430229C0181E021153105A6
:1025800009F080E0089507C0E7EBFBE03197F1F731
:1025900000C0000001970097B9F70895EF92FF92ED
:1025A0000F931F93CF93DF93C82FD92FEE24FF24CF
:1025B00087011CC090E00E940622BC018CE491E0DF
:1025C0000E941E22A801970164E0220F331F441FBE
:1025D000551F6A95D1F78C5491407C010027F7FC78
:1025E0000095102FE20EF31E041F151F89918823FA
:1025F00009F78E2DDF91CF911F910F91FF90EF90F2
:102600000895EF92FF920F931F93DF93CF93CDB76F
:10261000DEB728970FB6F894DEBF0FBECDBF8B0193
:10262000BE016F5F7F4F28E0FB0111922A95E9F709
:102630007C01EE0CFF1CEE0CFF1CE80EF91EC7011E
:102640000E94E60FF801168280E285839F819483C1
:102650009EE293839E819283FDE9EF16FFEFFF06D2
:1026600024F094E6E916F1040CF08D81F8018183E1
:102670008981F801808328960FB6F894DEBF0FBEDB
:10268000CDBFCF91DF911F910F91FF90EF900895F3
:10269000EF92FF920F931F93DF93CF93CDB7DEB7E7
:1026A00029970FB6F894DEBF0FBECDBF8B01FE0198
:1026B000319628E0DF011D922A95E9F77C01EE0CA6
:1026C000FF1CEE0CFF1CE80EF91EE8E3FFEFEE0E18
:1026D000FF1EF7FC02C020E201C02DE2C701BE01CF
:1026E0006F5F7F4F29870E94E60FD80116961C92D4
:1026F000169730E215963C9315978F8114968C931C
:1027000014978EE213968C9313978E8112968C9366
:102710001297C7018D599F4F2985873C910528F451
:1027200011962C9311973C9304C08D81F8018183FD
:10273000208329960FB6F894DEBF0FBECDBFCF9190
:10274000DF911F910F91FF90EF900895DF92EF922C
:10275000FF920F931F93DF93CF93CDB7DEB7A09770
:102760000FB6F894DEBF0FBECDBF7C018DE591E0C2
:1027700090931107809310071092120784E691E05E
:10278000B70143E050E00E943022009799F581E0C4
:102790000E947B0F80E061E00E941F0F88E691E0BD
:1027A0000E94A70DC7018E010F5F1F4FB8014AE0BD
:1027B0002DE631E00E94F20B882309F414C1C80110
:1027C0000E943F0CC8010E94B512882309F009C17C
:1027D000C8010E94A712882309F405C1C701B801E6
:1027E0004AE020E731E00E94F20B91E0882309F0F3
:1027F000FFC0F9C084E791E0B70143E050E00E94D8
:102800003022009709F0E6C0C7018E010F5F1F4F0D
:10281000B8014AE02DE631E00E94F20B882309F46A
:10282000E2C0C8010E943F0CC8010E94A712882381
:1028300009F4D9C0C701B8014AE028E731E00E9495
:10284000F20B882321F181EB809312078093830799
:10285000C8010E94CC218093940710929307109294
:1028600093078981803341F41092950710928F0766
:102870001092930792E0BCC0813349F481E08093C9
:10288000950780938F071092930793E0B1C0C7011B
:102890008E010F5F1F4FB8014AE02FE731E00E9421
:1028A000F20B882309F473C0C8010E94CC218093E5
:1028B000940786EB8093120788E080933802C70163
:1028C000B8014AE024E831E00E94F20B882329F0A5
:1028D000C8010E94CC2180938F07C7018E010F5F32
:1028E0001F4FB8014AE02AE831E00E94F20B88232A
:1028F00029F0C8010E94CC2180939307C7018E0163
:102900000F5F1F4FB8014CE120E931E00E94F20B4C
:10291000882309F46AC087EB8093120780938307AA
:1029200080E290E00E946C1FF82EE92EB8010E9410
:10293000292280E290E00E946C1F8F2D9E2D65E978
:1029400071E00E940E229C01DD2415C00D2D10E0C7
:10295000C90160E070E040E150E00E949F20F80172
:10296000EC56F84F6083D39480E090E065E971E025
:102970000E940E229C012115310541F780E090E074
:102980000E9406208F2D9E2D0E9406202EC0C7017A
:10299000B8014AE027E931E00E94F20B882339F5BB
:1029A000C701B8014CE021EA31E00E94F20B882314
:1029B00049F087E060E00E941F0F8AE20E94A20DAA
:1029C0009AE016C0C701B8014AE02BEA31E00E9444
:1029D000F20B09C081EB91E09093110780931007EF
:1029E00002C09FE005C090E003C099E001C097E0FD
:1029F000892FA0960FB6F894DEBF0FBECDBFCF9142
:102A0000DF911F910F91FF90EF90DF9008950F934A
:102A10001F93CF93DF93EC018B0160E070E046E6FB
:102A200055E00E94FB07BC01CE014BE555E00E943A
:102A3000FB07BC01CE01A8010E940B08DF91CF91DA
:102A40001F910F910895CF93DF93EC0160E070E048
:102A50004CE155E00E94FB07BC01CE0144EF54E07D
:102A60000E94FB07BC01CE0146ED54E00E94FB072B
:102A7000BC01CE0146EA54E00E94FB07BC01CE0136
:102A80004EE654E00E94FB07BC01CE014CE354E04B
:102A90000E94FB07BC01CE014AE054E00E94FB0704
:102AA000BC01CE0144EE53E00E94FB07BC01CE0105
:102AB00044EB53E00E94FB07BC01CE014AE853E01F
:102AC0000E94FB07BC01CE014CE653E00E94FB07CD
:102AD000BC01CE0148E353E00E94FB07BC01489BC8
:102AE0000AC0CE0140E053E00E94FB07BC01CE01CA
:102AF00040EC52E009C0CE0140E852E00E94FB07E2
:102B0000BC01CE0148E452E00E94FB07BC01CE01AB
:102B10004DE152E00E94FB07BC01CE014AEE51E0BC
:102B20000E94FB07DF91CF910895CF93DF93EC01D3
:102B30000E944012BC01CE0145ED51E00E94FB070E
:102B4000BC01CE014EE951E00E94FB07BC01CE0161
:102B500049E651E00E94FB07BC01CE014BE551E084
:102B60000E94FB07BC0110928603CE0145E857E0A6
:102B70000E940B08BC01CE0141E551E00E94FB0719
:102B8000DF91CF910895219A299A209A289A559AEF
:102B90005D9A53985B9A54985C9A10926A03539A80
:102BA0000895399A419A08953B9A3C9A3D9A88E350
:102BB00066E04CE00E94B80E89EB91E00E94A70D00
:102BC0008CE291E00E94C3120E94680F0895F8946D
:102BD000A89584B7877F84BFE0E6F0E080818861B4
:102BE00080831082789408952F923F924F925F9243
:102BF0006F927F928F929F92AF92BF92CF92DF920D
:102C0000EF92FF920F931F93DF93CF93CDB7DEB771
:102C1000E1970FB6F894DEBF0FBECDBF14BE88E1BA
:102C20000FB6F89480936000109260000FBE10926F
:102C3000860300E8009361001092610081E090E05B
:102C40000E94C3120E94C3150E94D41583EC91E028
:102C50000E94A70D8CE060E00E941F0F8FEC91E0B6
:102C60000E94A70D83ED91E00E94A70D80E496E0FD
:102C70000E94C3121092B80010927D07109269034F
:102C80000E94D115009361001092610000E0802F36
:102C90008A95F1F786E292E00E945A0482E00E944F
:102CA00054040A95F1F7789484E166E774E00E9491
:102CB0002F0486E292E06CE272E041E550E00E946F
:102CC0005E0680E392E00E94520984E392E00E9453
:102CD000460987E793E090931A078093190780E0ED
:102CE00090E02DE2FC01EC56F84F208301968032F3
:102CF0009105C1F70E94191281E00E947B0F80E0CC
:102D000060E00E941F0F88ED91E00E94A70D0E94D5
:102D100072110E94C81080916503806180936503E1
:102D2000EE249924FF24CC24DD2482E0882E05E0C3
:102D3000202E312C2C0E3D1E1AE0A12EB12CAC0EF3
:102D4000BD1E78940894C11CD11C8FEFC8168FE269
:102D5000D80660F0219B05C0809187038F5F809328
:102D6000870385B1882585B9CC24DD24809164034F
:102D700084FFBEC09394809164038F5F809364034B
:102D8000409088035090890360908A0370908B0371
:102D900060918C0370918D0380918E0390918F03CD
:102DA000B2E09695879577956795BA95D1F70E9489
:102DB000571C9B01AC01C301B2010E94CF199B01BA
:102DC000AC01209388033093890340938A03509386
:102DD0008B03809164038C70843009F07CC083E1A4
:102DE00060E00E941F0F80E20E94A20DE394809198
:102DF000880390918903A0918A03B0918B038093FB
:102E0000900390939103A0939203B093930380E077
:102E100090E0DC018093880390938903A0938A0358
:102E2000B0938B03809164038093640310926403D6
:102E3000209190033091910340919203509193031C
:102E400060E070E084EB93E40E94271B20E030E513
:102E500043EC57E40E942D1A9B01AC0120937A03A6
:102E600030937B0340937C0350937D0380916203F6
:102E7000909163036AE070E00E94D11E7093770323
:102E8000609376038E2D837079F460E00E941F0FAB
:102E9000892D0E944D0E80E20E94A20D8E2D0E946F
:102EA0004D0E8AE20E94A20D60917A0370917B031D
:102EB00080917C0390917D0320E030E041E053E479
:102EC0000E94271B0E945918609383038091650319
:102ED00081608093650310928C0310928D03109291
:102EE0008E0310928F03809164038F7E809364031E
:102EF0009F2D993008F0FF248091650384FF21CF36
:102F00008091650380FF3BC08091190290911A0265
:102F1000A0911B02B0911C0289839A83AB83BC836E
:102F2000D101EDE1F2E085E001900D928150E1F7F1
:102F300084E993E0BE016F5F7F4F0E94292284E9FC
:102F400093E0B1010E94132284E993E064EE71E002
:102F50000E9413228AE0D5011D928A95E9F785E83F
:102F600097E0B5010E94B40C84E993E0B5010E949A
:102F70001322F394809165038E7F80936503F89408
:102F800080E293E064ED73E00E945A05BC0184ED99
:102F900093E00E94150A8C01009709F043C08091CC
:102FA000F506813039F5109287038CE060E00E94CD
:102FB0001F0F8CEE91E00E94A70D81E00E947B0F15
:102FC00084E690E00E94C3128092F5068091F60696
:102FD0008F5F8093F606CE01449667EF76E044E07B
:102FE0002EE20AE00E94340D85EF91E06BEF76E06F
:102FF0000E94B40CBF2DB13009F0A3CE8091F6062B
:103000008F5F8093F6061092F5068EE391E06EEFE7
:1030100071E047E251E028E33FE00E94DC09A2E0D2
:10302000FA2E8FCE7894BC0168527C4F81E192E0F9
:1030300042E050E00E9430220097F1F48CE061E021
:103040000E941F0F84E192E00E94A70D0E9440128F
:1030500084ED93E060E070E04BEE50E00E94FB07EF
:10306000BC0184ED93E04FEC50E00E94FB0784ED3F
:1030700093E00E94951516C0C80187529C4F0E948C
:10308000A613813029F484ED93E00E9423150AC031
:10309000823049F084ED93E060E070E049E750E071
:1030A0000E94FB078C0184ED93E0B8010E94BB08ED
:1030B00048CEEF92FF920F931F937B018C0120E08B
:1030C00030E040E05FE40E94D51B87FD11C0C801DD
:1030D000B70120E030E040E05FE40E94FC190E946C
:1030E000051C9B01AC01205030404040504806C0B8
:1030F000C801B7010E94051C9B01AC01B901CA01BE
:103100001F910F91FF90EF900895A0E0B0E0EBE8E1
:10311000F8E10C94391FFC01EA018081823008F447
:1031200038C1DB019C91923008F430C1843059F4ED
:10313000943009F02EC1918111968C9111979817B6
:1031400009F021C126C1943009F420C19230B1F4B4
:10315000823009F01EC1CA01AF0128E0DA010D90EA
:10316000AD01DC010D92CD012150C1F7DB011196BB
:103170008C9111979181892389830AC1823009F446
:1031800005C1C280D380DB0112966D907C901397AD
:1031900024813581468157811496ED90FD900D91E3
:1031A0001C911797C601861997095C0197FF04C007
:1031B000AA24BB24A81AB90AB0E2AB16B1040CF0D9
:1031C00061C0181619066CF5370148010A2C04C0B5
:1031D00096948794779467940A94D2F781E090E06C
:1031E000A0E0B0E00A2C04C0880F991FAA1FBB1FE3
:1031F0000A94D2F70197A109B1098E219F21A0233A
:10320000B123EE24FF248701E3940097A105B105C3
:1032100019F4EE24FF248701E628F7280829192944
:103220003CC00097D1F1CA0CDB1C39014A010A2CC1
:1032300004C096948794779467940A94D2F781E0B7
:1032400090E0A0E0B0E00A2C04C0880F991FAA1FEC
:10325000BB1F0A94D2F70197A109B10982239323D6
:10326000A423B52321E030E040E050E00097A10521
:10327000B10519F420E030E0A901262937294829B1
:1032800059290BC06C147D0424F4EE24FF2487011B
:1032900004C0630120E030E0A9018181FB0191813C
:1032A000891709F445C0882349F0D801C701821B5A
:1032B000930BA40BB50B9C01AD0104C02E193F0963
:1032C000400B510B57FD04C01982DB82CA820BC030
:1032D00081E08983DB82CA825095409530952195A3
:1032E0003F4F4F4F5F4F2C833D834E835F830DC015
:1032F000880F991FAA1FBB1F8C839D83AE83BF833A
:103300008A819B8101979B838A838C819D81AE8179
:10331000BF819C01AD0121503040404050402F3FC3
:10332000EFEF3E07EFEF4E07EFE35E0708F30BC04A
:103330008983DB82CA822E0D3F1D401F511F2C83C3
:103340003D834E835F8383E088832C813D814E8162
:103350005F8157FF1DC0DA01C90181709070A070B4
:10336000B0705695479537952795822B932BA42BB4
:10337000B52B8C839D83AE83BF838A819B8101960D
:103380009B838A8305C0E3E5F2E003C0FB0101C033
:10339000FE01CF01CDB7DEB7EEE00C94551FA0E2E1
:1033A000B0E0E5EDF9E10C94411F69837A838B83EA
:1033B0009C832D833E834F83588789E0E82EF12C30
:1033C000EC0EFD1ECE010196B7010E94F61D8E0186
:1033D0000F5E1F4FCE010596B8010E94F61DC70172
:1033E000B801AE01475E5F4F0E9485180E94291DFB
:1033F000A096E6E00C945D1FA0E2B0E0E2E0FAE106
:103400000C94411F69837A838B839C832D833E8335
:103410004F8358878E01075F1F4FCE010196B80179
:103420000E94F61D91E1E92EF12CEC0EFD1ECE015D
:103430000596B7010E94F61D8A8991E089278A8B3B
:10344000C801B701AE01475E5F4F0E9485180E9418
:10345000291DA096E6E00C945D1FA0E2B0E0E3E336
:10346000FAE10C94351F69837A838B839C832D83C7
:103470003E834F835887CE010196BE01675F7F4F21
:103480000E94F61DCE010596BE016F5E7F4F0E9421
:10349000F61D9985923078F089898230C0F0943099
:1034A00019F4823041F4CBC0843019F4923079F4AD
:1034B000C6C0923051F481E02A859A89291709F40F
:1034C00080E08A87CE010996BCC0823051F481E049
:1034D0002A859A89291709F480E08A8BCE014196C2
:1034E000B0C06D847E848F849888ED88FE880F89B3
:1034F000188DE0E2F0E080E090E0DC01AA24BB243B
:10350000650120E030E0A901B301617070706115C0
:103510007105D1F02E0D3F1D401F511F15012601D1
:10352000280E391E4A1E5B1E81E090E0A0E0B0E04C
:103530002E153F054007510718F080E090E0DC01B0
:10354000820D931DA41DB51DAA0CBB1CCC1CDD1C3B
:1035500017FF09C061E0262E312C412C512CA228E6
:10356000B328C428D528319749F0EE0CFF1C001F62
:10357000111F9694879477946794C6CF6B897C8942
:10358000EB85FC856E0F7F1F6E5F7F4F7C8F6B8F8F
:1035900061E0EA857A89E71709F460E06A8F6B8D4C
:1035A0007C8D10C0FC01E170F070309729F05695C9
:1035B0004795379527955068B695A7959795879520
:1035C0006F5F7F4FB7FDEECF0CC0880F991FAA1F0A
:1035D000BB1F57FD8160220F331F441F551F6150D1
:1035E00070408030E0E09E07E0E0AE07E0E4BE0718
:1035F00060F36B8F7C8F6FE7E62EF12C012D112D80
:10360000E822F9220A231B2360E4E616F1040105EF
:10361000110561F487FD0AC02115310541055105E9
:1036200029F0805C9F4FAF4FBF4F80788D8F9E8F6A
:10363000AF8FB8A383E0898FCE01499602C083E59E
:1036400092E00E94291DA096E2E10C94511FA8E18E
:10365000B0E0EDE2FBE10C943D1F69837A838B833C
:103660009C832D833E834F8358878E01075F1F4FB6
:10367000CE010196B8010E94F61D81E1E82EF12CE1
:10368000EC0EFD1ECE010596B7010E94F61D998530
:10369000923008F483C08989823008F47BC02A857F
:1036A0003A8923272A87943011F0923021F4981711
:1036B00009F06CC071C0843039F41D861E861F86E7
:1036C000188A1C861B866AC0823019F484E08987B8
:1036D00065C08B859C852B893C89821B930B9C87BD
:1036E0008B872D853E854F855889ED88FE880F890B
:1036F000188D2E153F054007510738F4220F331F50
:10370000441F551F01979C878B876FE170E0A12CA8
:10371000B12CC12CA0E4DA2E80E090E0DC012E1563
:103720003F054007510740F08A299B29AC29BD2954
:103730002E193F09400B510BD694C794B794A79408
:10374000220F331F441F551F6150704041F76FE730
:10375000E62EF12C012D112DE822F9220A231B233C
:1037600060E4E616F1040105110561F487FD0AC065
:10377000211531054105510529F0805C9F4FAF4F60
:10378000BF4F80788D879E87AF87B88B8E01075F8C
:103790001F4F04C0870102C003E512E0C8010E9468
:1037A000291D6896EAE00C94591FA8E1B0E0EBED02
:1037B000FBE10C94411F69837A838B839C832D8367
:1037C0003E834F8358878E01075F1F4FCE010196BE
:1037D000B8010E94F61D81E1E82EF12CEC0EFD1ED1
:1037E000CE010596B7010E94F61D8985823040F012
:1037F0008989823028F0C801B7010E945F1E01C08C
:103800008FEF6896E6E00C945D1FACE0B0E0EBE073
:10381000FCE10C94451F69837A838B839C83CE01E2
:103820000196BE016B5F7F4F0E94F61D8D81823035
:1038300081F1823070F1843021F48E81882369F126
:103840000AC02F81388537FD24C06E812F313105A4
:103850003CF0662311F120E030E040E050E821C068
:103860008EE190E0821B930B29853A854B855C8520
:1038700004C056954795379527958A95D2F76623C4
:1038800081F050954095309521953F4F4F4F5F4FB8
:1038900008C020E030E0A90104C02FEF3FEF4FEF58
:1038A0005FE7B901CA012C96E2E00C94611FA8E021
:1038B000B0E0EDE5FCE10C943F1F7B018C011A8226
:1038C000611571058105910519F482E089835FC056
:1038D00083E089838EE1C82ED12CDC82CB82ED82FD
:1038E000FE820F831887C801B7010E94CF1CFC011C
:1038F0003197F7FF3AC0AA27BB27AE1BBF0B21E0C9
:1039000030E040E050E00A2E04C0220F331F441F75
:10391000551F0A94D2F721503040404050402E218C
:103920003F214023512361E070E080E090E02115C9
:1039300031054105510519F460E070E0CB0104C088
:1039400016950795F794E794AA95D2F7E62AF72AF1
:10395000082B192BED82FE820F8318878EE190E0F1
:103960008E1B9F0B9C838B8312C0309781F00E2E91
:1039700004C0EE0CFF1C001F111F0A94D2F7ED8249
:10398000FE820F831887CE1ADF0ADC82CB82CE013B
:1039900001960E94291D2896E8E00C945B1FAF92C7
:1039A000BF92CF92DF92EF92FF920F931F937B0112
:1039B0008C0180E0E81680E0F80681E0080780E0EE
:1039C000180758F4EFEFEE16F1040105110509F0A0
:1039D00090F480E090E0DC0117C0F0E0EF16F0E03A
:1039E000FF06F0E00F07F1E01F0750F480E190E0E0
:1039F000A0E0B0E009C088E090E0A0E0B0E004C042
:103A000088E190E0A0E0B0E020E230E040E050E06B
:103A1000281B390B4A0B5B0B5701680104C0D69475
:103A2000C794B794A7948A95D2F7D601C501855A51
:103A30009D4FFC018081281B310941095109C901B1
:103A40001F910F91FF90EF90DF90CF90BF90AF90BC
:103A50000895EF92FF920F931F93CF93DF93FC0192
:103A6000248135814681578161818081823020F4B3
:103A70004061EFEFF0E0A3C0843009F49BC08230D6
:103A800009F492C0211531054105510509F48FC093
:103A90000280F381E02D7FEFE238F7070CF05AC087
:103AA000C2E8DFEFCE1BDF0BCA31D1056CF579011F
:103AB0008A010C2E04C016950795F794E7940A9492
:103AC000D2F781E090E0A0E0B0E00C2E04C0880FB7
:103AD000991FAA1FBB1F0A94D2F70197A109B10928
:103AE00082239323A423B52321E030E040E050E07B
:103AF0000097A105B10519F420E030E0A9012E29B5
:103B00003F29402B512B03C020E030E0A901DA010E
:103B1000C9018F779070A070B07080349105A105B5
:103B2000B10539F427FF09C0205C3F4F4F4F5F4F6D
:103B300004C0215C3F4F4F4F5F4FE1E0F0E0203089
:103B400080E0380780E0480780E4580728F5E0E087
:103B5000F0E022C0E038F1056CF5E158FF4FDA01E2
:103B6000C9018F779070A070B07080349105A10565
:103B7000B10539F427FF09C0205C3F4F4F4F5F4F1D
:103B800004C0215C3F4F4F4F5F4F57FF05C0569514
:103B9000479537952795319687E056954795379500
:103BA00027958A95D1F70BC0E0E0F0E005C0E0E092
:103BB000F0E005C0EFEFF0E020E030E0A9018E2F4B
:103BC000879588278795942F9F77679566276795B0
:103BD000E695A92FA82BFE2FF62B622F732F8A2F85
:103BE0009F2FCDB7DEB7E6E00C945D1FDC01FB0133
:103BF0002C9111963C91119712968C911297482F07
:103C00004F7750E0982F991F9927991F13966C9121
:103C10001397862F880F892B90E0661F6627661FF3
:103C20006183009739F5211531054105510511F4DE
:103C300082E029C082E89FEF9383828367E0220FAE
:103C4000331F441F551F6A95D1F783E0808309C055
:103C5000220F331F441F551F828193810197938345
:103C60008283203080E0380780E0480780E45807EE
:103C700078F320C08F3F910579F421153105410576
:103C8000510519F484E08083089544FF03C081E066
:103C9000808310C010820EC08F5790409383828320
:103CA00083E0808387E0220F331F441F551F8A95CE
:103CB000D1F7506424833583468357830895FC01EC
:103CC000DB019081923008F449C08C91823008F475
:103CD00045C0943051F461818430B1F511962C9136
:103CE000119730E0261B310941C0843021F0923019
:103CF00041F48230B1F111968C9111978823A1F192
:103D00002DC06181823001F111968C911197681755
:103D1000D9F42281338112968D919C911397821749
:103D2000930794F028173907BCF024813581468128
:103D3000578114968D919D910D90BC91A02D821765
:103D40009307A407B50718F4662341F00DC02817A0
:103D500039074A075B0728F4662331F021E030E099
:103D600005C020E030E002C02FEF3FEFC901089509
:103D7000991B79E004C0991F961708F0961B881FBD
:103D80007A95C9F78095089587FB082E062687FD4A
:103D9000819567FD6195ECDF0EF4919507FC8195A7
:103DA0000895AA1BBB1B51E107C0AA1FBB1FA61782
:103DB000B70710F0A61BB70B881F991F5A95A9F7D4
:103DC00080959095BC01CD01089597FB092E07269B
:103DD0000AD077FD04D0E5DF06D000201AF47095F4
:103DE00061957F4F0895F6F7909581959F4F0895BF
:103DF000A1E21A2EAA1BBB1BFD010DC0AA1FBB1FEF
:103E0000EE1FFF1FA217B307E407F50720F0A21B60
:103E1000B30BE40BF50B661F771F881F991F1A94CD
:103E200069F760957095809590959B01AC01BD01F7
:103E3000CF01089597FB092E05260ED057FD04D01B
:103E4000D7DF0AD0001C38F4509540953095219565
:103E50003F4F4F4F5F4F0895F6F7909580957095BF
:103E600061957F4F8F4F9F4F08952F923F924F92B2
:103E70005F926F927F928F929F92AF92BF92CF92FA
:103E8000DF92EF92FF920F931F93CF93DF93CDB703
:103E9000DEB7CA1BDB0B0FB6F894DEBF0FBECDBF7B
:103EA00009942A88398848885F846E847D848C844C
:103EB0009B84AA84B984C884DF80EE80FD800C8155
:103EC0001B81AA81B981CE0FD11D0FB6F894DEBF38
:103ED0000FBECDBFED010895CF93DF9382309105E2
:103EE00010F482E090E0E091B607F091B70740E06F
:103EF00050E020E030E026C06081718168177907CA
:103F0000E0F06817790781F48281938121153105EA
:103F100031F0D90113969C938E9312972BC09093F6
:103F2000B7078093B60726C04115510519F06417ED
:103F3000750718F4AB01E901DF019F01728163810C
:103F4000E72FF62F3097C1F64115510501F1481BB7
:103F5000590B4430510580F412968D919C91139722
:103F6000209719F09B838A8304C09093B7078093AE
:103F7000B607FD01329646C0FD01E40FF51F81939F
:103F800091934250504011965C934E933BC02091C8
:103F9000B4073091B5072115310541F420915D0337
:103FA00030915E033093B5072093B40720915F03EF
:103FB000309160032115310541F42DB73EB7409192
:103FC0005B0350915C03241B350BE091B407F09127
:103FD000B507E217F307A0F42E1B3F0B281739078C
:103FE00078F0AC014E5F5F4F2417350748F04E0F55
:103FF0005F1F5093B5074093B4078193919302C01C
:10400000E0E0F0E0CF01DF91CF910895CF93DF930F
:10401000009709F491C0FC013297138212826091DB
:10402000B6077091B7076115710581F42081318160
:10403000280F391F8091B4079091B5078217930715
:1040400099F5F093B507E093B40776C0DB0180E003
:1040500090E002C0CD01D901AE17BF0748F4129617
:104060002D913C91139721153105A1F7CD0121C068
:10407000B383A283EF01499159919E01240F351F0B
:10408000A217B30779F42D913C911197240F351F96
:104090002E5F3F4F3183208312962D913C911397D1
:1040A00033832283009729F4F093B707E093B60790
:1040B00043C0DC011396FC93EE9312974D915D91F2
:1040C000A40FB51FEA17FB0769F420813181240F83
:1040D000351F2E5F3F4FEC013983288322813381C6
:1040E0003B832A83E0E0F0E002C0FB01BC01DB017E
:1040F00012968D919C9113970097B9F79B012E5FB3
:104100003F4F8D919C911197820F931F4091B4075F
:104110005091B5074817590779F4309729F4109250
:10412000B7071092B60702C01382128222503040A5
:104130003093B5072093B407DF91CF9108952F9264
:104140003F924F925F927F928F929F92AF92BF92D7
:10415000CF92DF92EF92FF920F931F93CF93DF9353
:104160004B01EA016115710519F0FB018083918310
:10417000209739F09E01225030402332310508F05B
:10418000F4C0C82ED92EF60111916F017F01812F45
:1041900090E00E94FE210097B1F71D3229F4F6014C
:1041A00011917F0101E006C01B3219F4F601119153
:1041B0007F0100E0209719F0C031D105B9F4103328
:1041C00081F4F7018081883711F0883551F4F701C7
:1041D000118182E090E0E80EF91E0260C0E1D0E0BB
:1041E00005C0209719F41033C1F422C0C830D1059E
:1041F000F9F0C930D10524F4C230D10509F507C062
:10420000CA30D10551F0C031D105D1F427C0A12C5D
:10421000B12CC12CF0E4DF2E26C0CAE0D0E0ECECDB
:10422000AE2EECECBE2EECECCE2EECE0DE2E1BC067
:10423000C8E0D0E0A12CB12CC12C70E1D72E13C066
:104240009E01442737FD4095542F60E070E080E0E8
:1042500090E80E94F81E59016A0105C0A12CB12CFA
:10426000C12C68E0D62E40E060E070E0CB011E017A
:10427000442437FC4094542C50ED752E710EE72DDC
:10428000EA3070F0212F21542A3118F439EC732EC2
:1042900006C0212F21562A3130F529EA722E710EDF
:1042A000272D30E02C173D07F4F447FD18C0A61663
:1042B000B706C806D90680F0A20191010E94B42277
:1042C000670D711D811D911D6130F0E07F07F0E0E9
:1042D0008F07F0E89F0710F04FEF01C041E0F701B2
:1042E00011917F01C9CF8114910491F0442339F0D9
:1042F0000894E108F108F401F182E08209C001FFAD
:104300001BC0970122503040F4013183208314C038
:1043100047FF12C000FF05C060E070E080E090E859
:1043200004C06FEF7FEF8FEF9FE722E230E0309322
:10433000B9072093B80716C000FF08C09095809574
:10434000709561957F4F8F4F9F4F0CC097FF0AC0AC
:1043500082E290E09093B9078093B8076FEF7FEF08
:104360008FEF9FE79B01AC0103C020E030E0A90183
:10437000B901CA01DF91CF911F910F91FF90EF908A
:10438000DF90CF90BF90AF909F908F907F905F9085
:104390004F903F902F900895FC0188279927E8942B
:1043A00021912032E9F3293010F02E30C8F32B325E
:1043B00041F02D3239F4689404C00E948622820FA5
:1043C000911D219120532A30C0F31EF490958195C0
:1043D0009F4F0895911106C080538A5010F0865C5B
:1043E00006C0089599278827089585FDFBCF806230
:1043F0009111F8CF81568A51E0F708959111F2CFCB
:10440000803219F089508550D0F7089591110895A0
:1044100081568A5108F48052855808954BE557E03B
:104420000E943E220895FB01DC010D900020E9F777
:10443000119701900D920020E1F70895FC01819100
:10444000861721F08823D9F7992708953197CF014E
:104450000895FB01DC0101900D920020E1F7089521
:10446000FB01DC014150504030F08D9101908019EA
:1044700019F40020B9F7881B990B0895FA01A1914E
:10448000B081009719F41097E1F0CD01DC01CD0166
:104490000D90002011F4C00113C0FB0121912223D3
:1044A00019F02015D9F7F3CFFB012191201519F44C
:1044B0001E92119606C02223C1F70D900020A1F78D
:1044C000D001FA01A193B0830895FB019F01E89404
:1044D0004230C4F04532B4F44A3029F497FB1EF45C
:1044E000909581959F4F642F77270E94D11E805D04
:1044F0008A330CF0895D8193CB010097A1F716F404
:104500005DE251931082C9010C94A4227AE0979F36
:10451000902D879F802D910D11240895FB019F01FF
:10452000423074F0453264F4642F77270E94D11E24
:10453000805D8A330CF0895D8193CB010097A1F7F0
:104540001082C9010C94A422DC01FC01672F719137
:104550007723E1F7329704C07C916D937083629169
:10456000AE17BF07C8F30895629FD001739FF00193
:10457000829FE00DF11D649FE00DF11D929FF00DF3
:10458000839FF00D749FF00D659FF00D9927729F2A
:10459000B00DE11DF91F639FB00DE11DF91FBD01B5
:0A45A000CF0111240895F894FFCF15
:1045AA00323030007374700000433020496E690065
:1045BA000020202020202020200000682063622084
:1045CA004F4B000068206362206572720000612010
:1045DA006362204F4B000020202020202020202032
:1045EA00000061206362206572720000303132334C
:1045FA0034353637383941424344454600696E7688
:10460A002E70770061636B0061636B000070770046
:10461A0074737400747769007374617475730077C6
:10462A00616472006862797465006C62797465000D
:10463A0064617461002B00697377726974656F6BCA
:10464A0000697373746174306F6B0072657365749B
:10465A0000696E762E75726C004C434420496E696F
:10466A00740000477574656E205461672000005617
:10467A003A0000432E303000202020202020202025
:10468A0020200000267374726F6D3D0070696E679A
:10469A00206F6B00006964657572303100007077B5
:1046AA003D506F6E67267374726F6D3D33363000FE
:1046BA00002F20002B2F2B000070773D00506F6ECB
:1046CA00670004011F00524834373033C0A801D7AD
:1046DA00C0A80101C111552A0869646575722130A3
:1046EA0030210069646575723030000000010100F4
:1046FA0001500A000000000000000000010202034D
:10470A00030303040404040404040405050505055D
:10471A00050505050505050505050506060606063A
:10472A00060606060606060606060606060606061F
:10473A00060606060606060606060607070707070A
:10474A0007070707070707070707070707070707EF
:10475A0007070707070707070707070707070707DF
:10476A0007070707070707070707070707070707CF
:10477A0007070707070707070707070808080808BA
:10478A00080808080808080808080808080808089F
:10479A00080808080808080808080808080808088F
:1047AA00080808080808080808080808080808087F
:1047BA00080808080808080808080808080808086F
:1047CA00080808080808080808080808080808085F
:1047DA00080808080808080808080808080808084F
:1047EA00080808080808080808080808080808083F
:1047FA0008080808080808080808082000BA070076
:02480A000000AC
:00000001FF
